:020000040800F2
:10000000B061012049030008853500085B35000810
:1000100081350008592A0008894E000800000000B8
:10002000000000000000000000000000890200083D
:10003000B12E000800000000E50200084D40000855
:1000400063030008630300086303000863030008F8
:1000500063030008630300086303000863030008E8
:100060006303000863030008192F000863030008F6
:1000700063030008630300086303000863030008C8
:1000800063030008630300086303000863030008B8
:1000900063030008630300086303000863030008A8
:1000A0006303000863030008630300086303000898
:1000B0006303000863030008630300086303000888
:1000C0006303000863030008630300086303000878
:1000D000630300080D4A0008BD4A000863030008D6
:1000E0006303000863030008630300086303000858
:1000F0006303000863030008630300086303000848
:100100006303000863030008630300086303000837
:100110006303000863030008630300086303000827
:100120006303000863030008630300086303000817
:100130006303000863030008630300086303000807
:1001400063030008630300086303000863030008F7
:1001500063030008630300086303000863030008E7
:1001600063030008630300086303000863030008D7
:1001700063030008630300086303000863030008C7
:10018000630300086303000800F002F800F06CF855
:100190000AA090E8000C82448344AAF10107DA45E2
:1001A00001D100F061F8AFF2090EBAE80F0013F0C8
:1001B000010F18BFFB1A43F001031847809100009C
:1001C000A09100000A444FF0000C10F8013B13F01E
:1001D000070408BF10F8014B1D1108BF10F8015BA0
:1001E000641E05D010F8016B641E01F8016BF9D193
:1001F00013F0080F1EBF10F8014BAD1C0C1B09D1EA
:100200006D1E58BF01F801CBFAD505E014F8016B5B
:1002100001F8016B6D1EF9D59142D6D370470000ED
:100220000023002400250026103A28BF78C1FBD8FF
:10023000520728BF30C148BF0B607047662908F0DD
:100240001487642900F0AE80002070471FB508F0C5
:1002500002FF00F0BBFC04000020002108F062F85F
:10026000E0601FBD10B510BD00F0D0FD1146FFF7D6
:10027000EDFF05F0AFFE00F0EEFD03B4FFF7F2FF77
:1002800003BC05F090FD00002C4B19680868B0E82D
:10029000F04F80F30988BFF36F8F4FF0000080F3B9
:1002A000118870470000000008480068006880F36B
:1002B00008884FF0000080F3148862B661B6BFF37F
:1002C0004F8FBFF36F8F00DF00BF00BF08ED00E06E
:1002D000DFF80C00016841F470010160704700BF55
:1002E00088ED00E0EFF30980BFF36F8F134B1A68BE
:1002F0001EF0100F08BF20ED108A20E9F04F1060AB
:1003000009B44FF0500080F31188BFF34F8FBFF353
:100310006F8F06F0D1FF4FF0000080F3118809BC09
:1003200019680868B0E8F04F1EF0100F08BFB0EC75
:10033000108A80F30988BFF36F8F7047C8000020D0
:10034000EFF30580704700000948804709480047DF
:10035000FEE7FEE7FEE7FEE7FEE7FEE7FEE7FEE775
:10036000FEE7FEE704480549054A064B70470000D2
:100370008140000889010008B05B0120B0610120C4
:10038000B05D0120B05D0120704700000FB404494A
:1003900010B503AA029800F0D5FB10BC5DF814FB61
:1003A000B00000202DE9F0410646002410687529B0
:1003B000314616A510D0AFF30080002802DA404283
:1003C00013A507E031688A0701D512A502E04907A5
:1003D00004D511A5012401E0AFF3008000210A2219
:1003E00006F1240709E0B0FBF2FCB0FBF2F302FBDC
:1003F0001C00303078541846491C0028F3D123469D
:100400002A463046BDE8F04100F034B90000000053
:100410002D0000002B000000200000002DE9F04717
:100420004FF0000A89460446C0F820A02046E16843
:100430008847002876D0252806D0D4E901219047A6
:10044000206A401C2062F1E7E168204600258847C9
:10045000C4F81CA006460027C4F818A02A2E09D00C
:10046000304605F099FC38B304EB8708303EC8F8F5
:10047000186019E059F8041B204604EB87029161CB
:10048000E1688847012F064618D1E069002820DA84
:1004900025F020051DE0D8F8180000EB800006EBE1
:1004A00040003038C8F818002046E1688847064602
:1004B00005F072FC0028EED1012F0AD02E2E08D1B3
:1004C0002046E16888477F1C0646022F45F020053C
:1004D000C4DBA069002803DA404245F00105A061B1
:1004E000E80701D025F01005B6B1A6F141001928A2
:1004F00002D8203645F400654A463146204625603C
:100500004D46FFF79BFE58B1012806D0ED1D25F0A2
:10051000070000F1080989E704E005F1040985E70F
:1005200030468AE7206ABDE8F087032A40F230802F
:1005300010F0030C00F0158011F8013BBCF1020F24
:10054000624498BF11F801CB00F8013B38BF11F8A5
:10055000013BA2F1040298BF00F801CB38BF00F8BC
:10056000013B11F0030300F0FF82083AC0F008805D
:1005700051F8043B083A51F804CBA0E80810F5E71D
:10058000121D5CBF51F8043B40F8043BAFF3008000
:10059000D20724BF11F8013B11F801CB48BF11F875
:1005A000012B24BF00F8013B00F801CB48BF00F845
:1005B000012B704702F0FF0343EA032242EA0242A2
:1005C00000F002B84FF000020429C0F0128010F0D1
:1005D000030C00F01B80CCF1040CBCF1020F18BF1F
:1005E00000F8012BA8BF20F8022BA1EB0C0100F0B2
:1005F0000DB85FEAC17C24BF00F8012B00F8012B85
:1006000048BF00F8012B70474FF0000200B51346B9
:1006100094469646203922BFA0E80C50A0E80C5022
:10062000B1F12001BFF4F7AF090728BFA0E80C50D3
:1006300048BF0CC05DF804EB890028BF40F8042BCC
:1006400008BF704748BF20F8022B11F0804F18BF39
:1006500000F8012B7047704770477047704710B51E
:1006600000F0B8FA006810BD10B5044600F0B2FA08
:10067000046010BD2DE9F0470D46994692460446A8
:1006800000F124080168880604D5E06921F0100112
:10069000216000E00120A84201DD471B00E00027A7
:1006A000A1697A1902EB0900081AA0612078C00636
:1006B00002D42046AFF30080002608E0D4E90121EF
:1006C0001AF806009047206A401C761C20624E45AE
:1006D000F4DB2078C0060AD52046AFF3008006E0A0
:1006E000D4E9012130209047206A401C2062381E46
:1006F000A7F10107F4DC07E0D4E9012118F80500AF
:100700009047206A401C2062281EA5F10105F3DCF9
:100710002046AFF300802078000602D50220BDE815
:10072000F0870120FBE770472DE9FF4F0C461E467E
:100730004FF0FF378BB0D2E90001DDF860800A90FE
:100740008A46C1F30A5505B93D46002108464FF0D7
:100750000000BAF1000F00F4400005DA00EB800061
:100760004FF4400101EA50004FEA9059B9F1010FEE
:1007700000DDB9460A9850EA4A000ED044F61050FF
:10078000A5F2FF3545432F14B8F1000F1ED0754276
:10079000291E1EDDC9F100021CE0B8F1010F4FF067
:1007A000000001D0302103E0F24305E02154401C59
:1007B000B042FBDB30460022002121540B99C1F8E6
:1007C0000880C1E900200FB0BDE8F08FBD1B6D1C93
:1007D000DEE74A4600DA694206A800F09DFA06AB59
:1007E00093E8070003AB83E8070050460A9900F03E
:1007F0007BFB8DE80700A0F500501F3800900398A0
:10080000002D0ADD42F21F014A460844002303A9D5
:100810000390684600F0E4FD09E0A0F500504A4668
:100820001F38002303A90390684600F0EEFD8DE811
:1008300007000004000C03D04FF0FF30410800E037
:100840001046B8F1000F03D00022009215461EE0BA
:10085000751E05D400F0C2F9303262556D1EF9D50F
:10086000B3460122084302D000227F1C04E0207816
:10087000302801D100227F1E002A099784D01DE074
:10088000112D07DA00F0AAF9303262556D1C50EADA
:100890000102F5D1084302D00098C8B10EE0002152
:1008A000681E05E0235C625C63542254401E491CB0
:1008B0008142F7DBAB46A81B401E0990002004F8DC
:1008C0000B000B98099AC0F80880C0E9002B7AE762
:1008D00011264FF0000857E72DE9F04F88460446EF
:1008E000D21D22F0070191B0D1E90001CDE90A0142
:1008F00004F0B2FB02460B98C00F01D02D2007E098
:100900002068810701D52B2002E0202101EAC000E8
:10091000032A099001D0072A05DB034641462046F9
:1009200000F0BAF90BE12078800601D5E06900E01B
:100930000620B8F1650F814606D0B8F1660F18D0D1
:10094000B8F1670F70D131E00020B9F1110F0090BC
:1009500001DB112301E009F101030AAA01A90CA896
:10096000FFF7E2FEDDE90C70002609F10105834680
:1009700047E001204B4600904FF000470AAA01A92A
:100980000CA8FFF7D1FEDDE90DB00C995D460026FD
:1009900010B909F101000D18B9EB050003D4C0F13D
:1009A000FF3609F10105A5EB09002BE0B9F1010FB4
:1009B00001DA4FF001090020B9F1110F009048460B
:1009C00001DD112300E003460AAA01A90CA8FFF7E4
:1009D000ABFEDDE90C704D4600268346207800070B
:1009E0000AD4AB4500DA5D4601A8012D04DD4119AA
:1009F00011F8011C302907D04F4502DA17F1040F16
:100A000004DA012082460FE06D1EEEE7002F02DCC3
:100A1000ED1B3E4403E0781CA84200DD7D1CB81BA2
:100A200000F1010A4FF000472078000703D4AA45DF
:100A300001DB4FF0FF3A0021B7F1004F0DF1430801
:100A40008DF8431024D002202B23002F01DA7F429F
:100A50002D230A21021EA0F1010000DC5FB197FBEB
:100A6000F1FC97FBF1F201FB1C7C17460CF1300CFA
:100A700008F801CDEEE7A8F101000370218809050F
:100A800001D5452100E06521A0F1010800F8011C15
:100A900009980FA9A1EB0807FF1D00B1012041191A
:100AA00001EBEA70A1693844081A401EA061207861
:100AB000C00602D42046AFF30080099828B1D4E9DB
:100AC00001219047206A401C20622078C00622D570
:100AD0002046AFF300801EE0002E04DBB34502DDAC
:100AE00001A8805D00E03020D4E901219047206A10
:100AF000401C2062761CAAF101005FEA000A0AD1BC
:100B000000F064F8C0680168405CD4E901219047B6
:100B1000206A401C2062281EA5F10105DCDC07E0EC
:100B2000D4E9012118F8010B9047206A401C20628B
:100B3000381EA7F10107F3DC2046AFF30080032045
:100B400011B041E6074B70B50D467B4400F091F8BB
:100B50000446284600F052F910B14FF0FF3070BD46
:100B6000204670BD6B54000010B5203AC0F00B80D9
:100B7000B1E81850203AA0E81850B1E81850A0E8A1
:100B80001850BFF4F5AF5FEA027C24BFB1E81850FB
:100B9000A0E8185044BF18C918C0BDE810405FEA6B
:100BA000827C24BF51F8043B40F8043B08BF7047E7
:100BB000D20728BF31F8023B48BF11F8012B28BFEC
:100BC00020F8023B48BF00F8012B704700487047EF
:100BD0006C5B0120004870474C5B012030B5B0F1E0
:100BE0000A024FEA900E71F100034EEA817EB0EBEB
:100BF0000E0061EB91014FEA101E4EEA017E10EBF0
:100C00000E0041EB11114FEA102E4EEA016E10EB6F
:100C10000E0041EB11214FEA104E4EEA014E10EB4F
:100C20000E0041EB1141401841F100014FEAD000A4
:100C300040EA41704FEAD10110EB80054FEA810490
:100C400044EA907444EB01046D1944EB0404521B14
:100C5000A3414FF0000348BF0A3200D530BD401C0D
:100C600041F1000130BD000001694A1C02610878B1
:100C7000704700B58FB0CDE90131002105910549DC
:100C80007944CDE9031011466846FFF7C7FB0FB062
:100C900000BD0000E5FFFFFF2DE9F0411F460446BF
:100CA00003260168072A01F4006004DB08B116A5D9
:100CB00005E016A503E008B115A500E015A521F093
:100CC00010002060A069C01EA0610FB1401EA0618D
:100CD0002046AFF300804FB1D4E901213846904758
:100CE000206A401C2062C01C206206E0206AFAE7ED
:100CF000D4E9012115F8010B9047761EF8D2204661
:100D0000AFF30080BDE8F0814E414E006E616E0091
:100D1000494E4600696E66002DE9F0478146164649
:100D20008AB0354878440DC88DE80D0032487844C3
:100D3000801C03AC0DC884E80D0041F69B300844CC
:100D4000372190FBF1F290FBF1F5A5F1800501FB55
:100D500012041B3C02D56442012000E00020DFF8B1
:100D600098A080460027FA44AAF1BE0A0EE0E007E8
:100D70000AD03246684607EB470101230AEB81019E
:100D800000F043FB8DE8070064107F1C002CEED1BF
:100D9000194F7F44AE3F19E0E80715D007EB041068
:100DA0000DF1180A90E80E008AE80E00C068F042C3
:100DB00001D1981908903246012306A903A800F032
:100DC00024FB03AB83E807006D10641C002DE3D106
:100DD0004FF0010332466946B8F1000F03A802D074
:100DE00000F0FEFA01E000F010FBC9E90001C9F8CB
:100DF00008200AB0BDE8F087FC850000007B00F009
:100E000080007047004870474C5B01207546FFF733
:100E1000F9FFAE4605006946534620F007008546B7
:100E200018B020B5FFF79EFABDE820404FF000064D
:100E30004FF000074FF000084FF0000B21F00701C2
:100E4000AC46ACE8C009ACE8C009ACE8C009ACE805
:100E5000C0098D46704710B50446AFF300802046A8
:100E6000BDE81040FFF709BA4FF0013C50F8042BE1
:100E700051F8043B9A4221D1A2EB0C03934313EAAD
:100E8000CC1317D150F8042B51F8043B9A4215D1DA
:100E9000A2EB0C03934313EACC130BD150F8042BB1
:100EA00051F8043B9A4209D1A2EB0C03934313EA95
:100EB000CC13DBD04FF00000704700BFD01A01BA4E
:100EC000B1FA81F101F0180122FA01F0CB40C1F131
:100ED0002001DBB2C0B2C01A2CFA01F3D11A91433F
:100EE00011EAC311E6D170475FEA400C08BF91F0E8
:100EF000000F4FEA8C234FEAC12243EA51514FEAD7
:100F00001C5018BF00F5F0404FEA300018BF41F008
:100F100000415FEA6C5C00F02980BCF1FF3F08BF34
:100F200040F080407047130C06BF12044FF0100CC5
:100F30004FF0000C130E04BF12020CF1080C130F3B
:100F400004BF12010CF1040C930F04BF92000CF1CA
:100F5000020CD30F04BF52000CF1010C11464FF0EC
:100F60000002A0F11F00A0EB0C00704711F0004F31
:100F700008BF704731F000413FF4D5AF0B0C06BFFE
:100F800009044FF0100C4FF0000C0B0E04BF0902C7
:100F90000CF1080C0B0F04BF09010CF1040C8B0FB2
:100FA00004BF89000CF1020CCB0F04BF49000CF107
:100FB000010CCCF12003A0EB0C0022FA03F302FA9F
:100FC0000CF241EA030100F10100704720F07F4C70
:100FD00080EA030023F07F47ACEB070303F57C5363
:100FE00000F0004003F1FF032DE980494FEA154B63
:100FF00009B44FEA144325EA0B4E24EA03480FF2E2
:10100000042606EB132749083E785FEA320203FB09
:101010000667C7F5000707FB06F64FEA54374FEAA5
:10102000D64606F1020607FB066CCCF1005C4FEADF
:101030001C472CEA074C07FB06F40CFB06F504EBF7
:1010400015464FEA961634BF00204FF000404FEA95
:10105000D13706FB07FC4FEA1C4C0CFB0BF7D21BED
:1010600003FB0CF761EB07010CFB0EF7B0EB07403D
:1010700072EB17420CFB08F734BFA2EB0742B2EB4E
:10108000074261EB17414FEA0C444FEA910706FB18
:1010900007FC4FEA1C4C0CFB0BF7B0EBC74072EBA4
:1010A000573203FB0CF734BFA2EBC742B2EBC74287
:1010B00061EB57310CFB0EF7B0EBC70072EB5772C8
:1010C0000CFB08F734BFA2EBC702B2EBC70261EB1F
:1010D0005771039F4FEA816141EA921104EBCC04FE
:1010E0004FEAD1374FEA826206FB07FC42EA9012D0
:1010F0004FEA80604FEA1C4C0CFB0BF7D21B03FB42
:101100000CF761EB07010CFB0EF7B0EB074072EB3D
:1011100017420CFB08F734BFA2EB0742B2EB0742C1
:1011200061EB17414FEA8C554FEA910704EB9C2481
:1011300006FB07FC4FEA1C4C0CFB0BF7B0EBC7405F
:1011400072EB573203FB0CF734BFA2EBC742B2EB92
:10115000C74261EB57310CFB0EF7B0EBC70072EBE7
:1011600057720CFB08F734BFA2EBC702B2EBC70201
:1011700061EB577115EB4C254FEA816141EA921101
:101180004FEA82624FEAD13742EA901206FB07FC2F
:1011900044F100044FEA80604FEA1C4C0CFB0BF753
:1011A000D21B03FB0CF761EB07010CFB0EF7B0EB56
:1011B000074072EB17420CFB08F734BFA2EB074263
:1011C000B2EB074261EB174115EB1C154FEA813179
:1011D00041EA92414FEA823242EA90424FEA80303D
:1011E0004FEA0C7644F1000448EA03434EEA0B4808
:1011F0004FF0000EB2EB080C71EB030724BF624600
:1012000039464EEB0E0E4FF0000B0018524149418B
:101210004BEB0B0BB2EB080C71EB03077BF1000BF4
:1012200024BF624639464EEB0E0E4FF0000B0018FD
:10123000524149414BEB0B0BB2EB080C71EB03072E
:101240007BF1000B24BF624639464EEB0E0E51EA8D
:10125000020718BF46F0010616EB0E7655F10002A4
:1012600054F1000103D5BDE88901BDE80088BDE85F
:101270008901BDE80048B619524141EB0101A3F1D3
:101280000103704780807F7E7D7C7B7A79787776DA
:1012900076757473727171706F6E6E6D6C6C6B6A53
:1012A0006A696868676666656464636362616160F1
:1012B000605F5F5E5E5D5D5C5C5B5B5A5A5959586E
:1012C00058575756565555555454535352525251D8
:1012D000515050504F4F4F4E4E4D4D4D4C4C4C4B2E
:1012E0004B4B4A4A4A494949484848474747474675
:1012F00046464545454444444443434343424242B1
:1013000042414141002B9C4630D477002BD01CB584
:101310004FEA370703B44FF010004FF01001BAF155
:10132000000F06D0BCF1000FDCBF40F0080040F019
:1013300008014FF000000FBCBDE810400BF1010B9D
:10134000BBF1010F08BF5FEA170722BF12F10102CC
:1013500011F101014FF0004143F1000300F00040A2
:1013600043EA00007047F9D35708D0E746EA06463B
:1013700013F1400F4FEA16461FDD13F1200FDFBFB8
:1013800016430A46002120335B42BED0C3F120073A
:1013900046EA064602FA07F74FEA164646EA070605
:1013A000C3F1200722FA03F201FA07F721FA03F149
:1013B0004FF0000342EA0702A7E746EA020646EAC0
:1013C00006464FEA164646EA0106BCBF46EA06460E
:1013D000360C4FF000034FF000024FF0000194E78D
:1013E0002DE9804C9A46934670B491E8380007C8BE
:1013F00031EA400C48BF34EA430C03D5FFF7E6FD61
:10140000FFF780FFF0BCBDE8008C2DE9804C9A46C8
:10141000934670B491E8380007C810F0804F08BFB9
:1014200013F0804F03D100F005F8FFF76BFFF0BC1D
:10143000BDE8008C20F07F4780EA030023F07F4C5A
:1014400007EB0C03A3F57C5300F00040A3F1FE036F
:1014500092F0000F00F0B38095F0000F00F077805D
:101460002DE901494FEA11404FEA144621EA0048AC
:1014700000FB06FC24EA064708FB06F607FB08F813
:1014800000FB07F718EB06484CEB164C4FEA124BE3
:1014900018EB07484FEA15464CEB174022EA0B4E73
:1014A0000BFB06FC25EA06470EFB06F607FB0EFEC5
:1014B0000BFB07F71EEB064E4CEB164C4FF00006ED
:1014C0001EEB074E4CEB174B18EB0B0840F10000DE
:1014D00018EB0E0B58EB000840F100008F1A4FF08C
:1014E00000013CBFC943661B14BFB5EB040C0021CF
:1014F0003CBFC943F61B4FEA17444EEA8E0E27EA5B
:1015000004454FEA1C4704FB07622CEA074C05FB25
:1015100007F70CFB05F604FB0CFC16EB074642EB49
:10152000174216EB0C4642EB1C421BEB060658EB2F
:101530000202414146EA9E0601D5BDE80189B6197D
:10154000524141EB0101A3F10103BDE801894FEADA
:1015500014454FEA114724EA054621EA074C05FBEA
:1015600007F406FB07F70CFB06F105FB0CFC11EB7F
:10157000074144EB17444FEA124711EB0C4144EB8F
:101580001C4422EA074C05FB07F206FB07F70CFB9D
:1015900006F605FB0CFC16EB074642EB174216EB72
:1015A0000C4642EB1C456A1854F1000148BF7047D5
:1015B000B619524141EB0101A3F10103704795F0C7
:1015C000000F37D04FEA11424FEA144721EA024692
:1015D00024EA074C02FB07F106FB07F70CFB06F4B5
:1015E00002FB0CFC14EB074441EB17414FEA154793
:1015F00014EB0C4441EB1C4125EA074C02FB07F5B8
:1016000006FB07F70CFB06F602FB0CFC16EB074685
:1016100045EB174516EB0C4645EB1C42121951F1F0
:10162000000148BF7047B619524141EB0101A3F1D7
:10163000010370474FEA14454FEA114724EA054673
:1016400021EA074C05FB07F106FB07F70CFB06F246
:101650004FF0000605FB0CFC12EB074241EB174173
:1016600012EB0C4251EB1C4148BF7047921841EB02
:101670000101A3F10103704700B59BB0012019904F
:10168000002018901790169016900120FE490860CF
:1016900005F00AFE00BFFD480078012813D101F0D3
:1016A0006FF9FB480268FB48169940F82120F8487A
:1016B000F94A4168169842F820100020F349087052
:1016C0001698401C169040F2E34116988842E2D3E7
:1016D00006F03AFD0020EC49086019901690189029
:1016E00027E09FEDEE0BEB49A039189801EBC00005
:1016F00080ED000B9FEDE90B01F12800189900EB3C
:10170000C10080ED000B9FEDE50BE24850381899C1
:1017100000EBC10080ED000B9FEDE00BDD482838A9
:10172000189900EBC10080ED000B1898401C80B2A6
:10173000189018980528D4DB0020179081E217989C
:1017400000EB4001C1EBC010012101EB400080B271
:10175000189067E2FA21189890FBF1F0401C48437A
:10176000CC4951F820000B9007F0A7F89FEDCD0B66
:1017700053EC102BCDE90C019DED0C0B51EC100B33
:1017800006F0D8FECDE91001189807F0ADF89FEDEE
:10179000C70B53EC102BCDE900019DED000B51EC74
:1017A000100B07F0F1F89FEDC30B53EC102BCDE9B4
:1017B00002019DED020B51EC100B06F0BBFECDE9D2
:1017C00004019DED040B03F0CBFD8DED080BB1483A
:1017D000189950F82100039007F06FF89FEDB70BB0
:1017E00053EC102BCDE904019DED040B51EC100BD3
:1017F00007F0CAF8CDE906019DED080B53EC102B5C
:101800009DED060B51EC100B07F0BEF8CDE90C0175
:10181000FA21189890FBF1F048439E4951F82000B6
:10182000079007F04AF89FED9F0B53EC102BCDE982
:1018300008019DED080B51EC100B06F07BFECDE985
:101840000A019DED0C0B53EC102B9DED0A0B51EC96
:10185000100B06F0BBFDCDE90E019DED100B53EC16
:10186000102B9DED0E0B51EC100B06F0AFFD9FED14
:10187000910B53EC102BCDE912019DED120B51ECA5
:10188000100B06F057FECDE914018249A0391798D4
:1018900001EBC00090ED000B8DED120B9DED120BD6
:1018A00053EC102B9DED140B51EC100B06F08EFD3C
:1018B00041EC100B7749A039179801EBC00080ED7F
:1018C000000B189807F010F89FED780B53EC102BD5
:1018D000CDE908019DED080B51EC100B07F054F811
:1018E0009FED740B53EC102BCDE90A019DED0A0B13
:1018F00051EC100B06F01EFECDE90C019DED0C0B1A
:1019000003F092FD8DED100B6248189950F82100FC
:101910000B9006F0D2FF9FED690B53EC102BCDE935
:101920000C019DED0C0B51EC100B07F02DF8CDE9DF
:101930000E019DED100B53EC102B9DED0E0B51EC99
:10194000100B07F021F89FED5B0B53EC102BCDE94A
:1019500012019DED120B51EC100B06F0EBFDCDE9E1
:1019600014014C487838179900EBC10090ED000B3A
:101970008DED120B9DED120B53EC102B9DED140B06
:1019800051EC100B06F022FD41EC100B4148783869
:10199000179900EBC10080ED000BFA21189890FB1D
:1019A000F1F0401C48433C4951F820000B9006F0F0
:1019B00084FF9FED3C0B53EC102BCDE90C019DED0A
:1019C0000C0B51EC100B06F0B5FDCDE91001189889
:1019D00006F08AFF9FED350B53EC102BCDE900018B
:1019E0009DED000B51EC100B06F0CEFF9FED310B7F
:1019F00053EC102BCDE902019DED020B51EC100BC5
:101A000006F098FDCDE904019DED040B03F0A8FC60
:101A10008DED080B2049189851F82000039006F02E
:101A20004CFF9FED260B53EC102BCDE904019DEDEF
:101A3000040B51EC100B06F0A7FFCDE906019DED5C
:101A4000080B53EC102B9DED060B51EC100B06F020
:101A50009BFFCDE90C01FA21189890FBF1F0484367
:101A60000D4951F82000079006F027FF9FED0D0B60
:101A700053EC102BCDE908019DED080B51EC100B38
:101A800006F058FD1EE000009C024042400000208D
:101A900038000020F801002084150020000000001C
:101AA000000000000000000000206F40112D445491
:101AB000FB2119400000000000406F4000000000C2
:101AC00000000040CDE90A019DED0C0B53EC102BFA
:101AD0009DED0A0B51EC100B06F078FCCDE90E01E0
:101AE0009DED100B53EC102B9DED0E0B51EC100BDC
:101AF00006F06CFC1FED110B53EC102BCDE912011D
:101B00009DED120B51EC100B06F014FDCDE9140104
:101B1000FE48179900EBC10090ED000B8DED120B04
:101B20009DED120B53EC102B9DED140B51EC100B93
:101B300006F04CFC41EC100BF448179900EBC10087
:101B400080ED000B189806F0CFFE1FED280B53EC2C
:101B5000102BCDE908019DED080B51EC100B06F0A0
:101B600013FF1FED2C0B53EC102BCDE90A019DED5B
:101B70000A0B51EC100B06F0DDFCCDE90C019DEDDC
:101B80000C0B03F051FC8DED100BE149189851F846
:101B900020000B9006F091FE1FED380B53EC102B3C
:101BA000CDE90C019DED0C0B51EC100B06F0ECFE99
:101BB000CDE90E019DED100B53EC102B9DED0E0B9E
:101BC00051EC100B06F0E0FE1FED460B53EC102B12
:101BD000CDE912019DED120B51EC100B06F0AAFCA1
:101BE000CDE91401C9482830179900EBC10090EDE8
:101BF000000B8DED120B9DED120B53EC102B9DED98
:101C0000140B51EC100B06F0E1FB41EC100BBF483C
:101C10002830179900EBC10080ED000B1898401C8C
:101C200080B218901798401C00EB4001C1EBC01126
:101C30001898B0EB410FFFF68DAD1798401C80B29D
:101C4000179017980528FFF67AAD00201890FDE34D
:101C5000AE482838189900EBC10090ED000B8DEDCF
:101C60000E0BAA48283800EBC10090ED000B8DED5B
:101C70000C0B9DED0E0B53EC102B9DED0C0B51EC52
:101C8000100B06F081FECDE91201A04950391898D9
:101C900001EBC00090ED000B8DED0E0B189801EBE1
:101CA000C00090ED000B8DED0C0B9DED0E0B53EC79
:101CB000102B9DED0C0B51EC100B06F065FECDE9E1
:101CC00010019DED120B53EC102B9DED100B51EC00
:101CD000100B06F07BFBCDE914019DED140B03F016
:101CE00007FC8C49189801EBC00080ED000B189898
:101CF00001EBC00090ED000B8DED100B9FED860BFE
:101D000053EC102B9DED100B51EC100B06F012FC58
:101D10009FED830B53EC102BCDE912019DED120BBF
:101D200051EC100B06F030FE9FED7F0B53EC102BA7
:101D3000CDE914019DED140B51EC100B06F0FAFBEC
:101D400041EC100B7349189801EBC00080ED000BBB
:101D5000A1F51D50189900EBC10090ED000B8DED21
:101D60000E0B6A48283000EBC10090ED000B8DEDA2
:101D70000C0B9DED0E0B53EC102B9DED0C0B51EC51
:101D8000100B06F001FECDE912016048189900EB36
:101D9000C10090ED000B8DED0E0B5C4800EBC10017
:101DA00090ED000B8DED0C0B9DED0E0B53EC102BFD
:101DB0009DED0C0B51EC100B06F0E6FDCDE910018A
:101DC0009DED120B53EC102B9DED100B51EC100BF5
:101DD00006F0FCFACDE914019DED140B03F088FB2D
:101DE0004C492831189801EBC00080ED000B189881
:101DF00001EBC00090ED000B8DED100B9FED460B3D
:101E000053EC102B9DED100B51EC100B06F092FBD8
:101E10009FED430B53EC102BCDE912019DED120BFE
:101E200051EC100B06F0B0FD9FED3F0B53EC102B67
:101E3000CDE914019DED140B51EC100B06F07AFB6B
:101E400041EC100B33492831189801EBC00080EDAC
:101E5000000B2E495039189801EBC00090ED000B93
:101E60008DED140B1FEDF30B53EC102B9DED140BAC
:101E700051EC100B06F086FE64D2244828381899DD
:101E800000EBC10090ED000B8DED120B9DED120BE0
:101E900051EC100B06F05CFA9FED250B53EC102B68
:101EA000CDE914019DED140B51EC100B06F06AFE08
:101EB00048D216482838189900EBC10090ED000B65
:101EC0008DED100B9DED100B51EC100B06F040FA50
:101ED000CDE912010D495039189801EBC00090ED81
:101EE000000B8DED100B9DED100B53EC102B9DEDA9
:101EF000120B51EC100B06F01DFBCDE914019DED0A
:101F0000140B03F0C1F80349503115E0A80100207B
:101F10008415002010290020000000E0FFFF6F4121
:101F200000000000000014403E9865669EA0F63F49
:101F30000000000000000000189801EBC00080EDD8
:101F4000000B90E1F949189801EBC00090ED000BEF
:101F50008DED140B1FED0A0B53EC102B9DED140BA4
:101F600051EC100B06F0D4FC59D2F04828301899E7
:101F700000EBC10090ED000B8DED120B9DED120BEF
:101F800051EC100B06F0E4F91FED170B53EC102B7E
:101F9000CDE914019DED140B51EC100B06F0F2FD90
:101FA0003DD2E2482830189900EBC10090ED000BBB
:101FB0008DED0E0B9DED0E0B51EC100B06F0C8F9DC
:101FC000CDE91001D949189801EBC00090ED000B44
:101FD0008DED0E0B9DED0E0B53EC102B9DED100BAC
:101FE00051EC100B06F0A6FACDE912019DED120B93
:101FF00003F04AF88DED140B9FEDCD0B53EC102B35
:102000009DED140B51EC100B06F0E0F941EC100BB8
:10201000C949189801EBC00080ED000B23E1C349CA
:10202000189801EBC00090ED000B8DED140B1FED27
:10203000400B53EC102B9DED140B51EC100B06F0E4
:1020400067FC59D2B9482830189900EBC10090EDCF
:10205000000B8DED120B9DED120B51EC100B06F0E9
:1020600077F91FED4D0B53EC102BCDE914019DEDCD
:10207000140B51EC100B06F04BFC3DD2AB48283052
:10208000189900EBC10090ED000B8DED0E0B9DED4E
:102090000E0B51EC100B06F05BF9CDE91001A349D2
:1020A000189801EBC00090ED000B8DED0E0B9DED2F
:1020B0000E0B53EC102B9DED100B51EC100B06F09A
:1020C00039FACDE912019DED120B02F0DDFF8DED25
:1020D000140B9FED970B53EC102B9DED140B51EC53
:1020E000100B06F073F941EC100B9349189801EBB3
:1020F000C00080ED000BB6E08C49189801EBC000E1
:1021000090ED000B8DED140B1FED770B53EC102BA6
:102110009DED140B51EC100B06F034FD59D28348A1
:102120002830189900EBC10090ED000B8DED120BDB
:102130009DED120B51EC100B06F00AF91FED840B0C
:1021400053EC102BCDE914019DED140B51EC100B49
:1021500006F0DEFB3DD275482830189900EBC1002F
:1021600090ED000B8DED0E0B9DED0E0B51EC100B59
:1021700006F0EEF8CDE910016C49189801EBC000AB
:1021800090ED000B8DED0E0B9DED0E0B53EC102B17
:102190009DED100B51EC100B06F0CCF9CDE91201BE
:1021A0009DED120B02F070FF8DED140B9FED630B94
:1021B00053EC102B9DED140B51EC100B06F006F9AF
:1021C00041EC100B5C49189801EBC00080ED000B4E
:1021D00049E056482830189900EBC10090ED000BFB
:1021E0008DED140B1FEDAE0B53EC102B9DED140B6E
:1021F00051EC100B06F0F6FA35D14C49189801EB6A
:10220000C00090ED000B8DED140B1FEDB70B53ECE0
:10221000102B9DED140B51EC100B06F0B3FC07D204
:102220001FEDBD0B4449189801EBC00080ED000B79
:102230003E49189801EBC00090ED000B8DED140B9A
:102240001FEDC50B53EC102B9DED140B51EC100B37
:1022500006F05EFB07D29FED360B3749189801EB6D
:10226000C00080ED000B31485030189900EBC100E0
:1022700090ED000B8DED140B1FEDD30B53EC102BD9
:102280009DED140B51EC100B06F07CFC5AD2274844
:102290007830189900EBC10090ED000B8DED120B1A
:1022A0009DED120B51EC100B06F052F81FEDE00BF8
:1022B00053EC102BCDE914019DED140B51EC100BD8
:1022C00006F060FC3ED219487830189900EBC10046
:1022D00090ED000B8DED100B9DED100B51EC100BE4
:1022E00006F036F8CDE9120110485030189900EB8D
:1022F000C10090ED000B8DED100B9DED100B53EC1C
:10230000102B9DED120B51EC100B06F013F9CDE9DB
:1023100014019DED140B02F0B7FE074928311898FF
:1023200001EBC00080ED000B9FE100005801002090
:10233000112D4454FB21094060290020112D4454E3
:10234000FB211940FE48189900EBC10090ED000BED
:102350008DED140B9FEDFB0B53EC102B9DED140B2F
:1023600051EC100B06F0D4FA59D2F54828301899E0
:1023700000EBC10090ED000B8DED120B9DED120BEB
:1023800051EC100B05F0E4FF9FEDEE0B53EC102B1E
:10239000CDE914019DED140B51EC100B06F0F2FB8E
:1023A0003DD2E7482830189900EBC10090ED000BB2
:1023B0008DED0E0B9DED0E0B51EC100B05F0C8FFD3
:1023C000CDE91001DE48189900EBC10090ED000B3B
:1023D0008DED0E0B9DED0E0B53EC102B9DED100BA8
:1023E00051EC100B06F0A6F8CDE912019DED120B91
:1023F00002F04AFE8DED140B1FED330B53EC102B46
:102400009DED140B51EC100B05F0E0FF41EC100BAF
:10241000CE49189801EBC00080ED000B25E1C848BB
:10242000189900EBC10090ED000B8DED140B9FEDA2
:10243000C50B53EC102B9DED140B51EC100B06F05B
:1024400067FA5BD2BE482830189900E011E100EB32
:10245000C10090ED000B8DED120B9DED120B51ECB8
:10246000100B05F075FF9FEDB70B53EC102BCDE96A
:1024700014019DED140B51EC100B06F049FA3DD2FE
:10248000AF482830189900EBC10090ED000B8DED9E
:102490000E0B9DED0E0B51EC100B05F059FFCDE925
:1024A0001001A748189900EBC10090ED000B8DEDCD
:1024B0000E0B9DED0E0B53EC102B9DED100B51EC04
:1024C000100B06F037F8CDE912019DED120B02F06A
:1024D000DBFD8DED140B1FED6A0B53EC102B9DED06
:1024E000140B51EC100B05F071FF41EC100B9749E8
:1024F000189801EBC00080ED000BB6E090481899E9
:1025000000EBC10090ED000B8DED140B9FED8D0BDA
:1025100053EC102B9DED140B51EC100B06F032FB1D
:1025200059D287482830189900EBC10090ED000B74
:102530008DED120B9DED120B51EC100B05F008FF09
:102540009FED800B53EC102BCDE914019DED140B86
:1025500051EC100B06F0DCF93DD27948283018997F
:1025600000EBC10090ED000B8DED0E0B9DED0E0B01
:1025700051EC100B05F0ECFECDE9100170481899F4
:1025800000EBC10090ED000B8DED0E0B9DED0E0BE1
:1025900053EC102B9DED100B51EC100B05F0CAFF06
:1025A000CDE912019DED120B02F06EFD8DED140BC5
:1025B0001FED9E0B53EC102B9DED140B51EC100BEB
:1025C00005F004FF41EC100B6049189801EBC000C6
:1025D00080ED000B49E05A482830189900EBC10003
:1025E00090ED000B8DED140B9FED560B53EC102B63
:1025F0009DED140B51EC100B06F0F4F835D150485A
:10260000189900EBC10090ED000B8DED140B9FEDC0
:102610004D0B53EC102B9DED140B51EC100B06F0F1
:10262000B1FA07D29FED470B4849189801EBC0005B
:1026300080ED000B4248189900EBC10090ED000BB3
:102640008DED140B9FED3F0B53EC102B9DED140BF8
:1026500051EC100B06F05CF907D21FEDCB0B3B4998
:10266000189801EBC00080ED000B1898401C80B258
:10267000189018980528FFF6EBAA344978390520F8
:1026800001F01CFB324880ED000B30495039052029
:1026900001F014FB2F4880ED000B00201890C4E0DF
:1026A0002D482E49097800EBC10090ED000B8DED0F
:1026B000120B9FED2B0B53EC102B9DED120B51ECDD
:1026C000100B05F037FFCDE914012049283918987F
:1026D00001EBC00090ED000B8DED120B9DED120B88
:1026E00053EC102B9DED140B51EC100B06F080FAFF
:1026F00041EC100B15492839189801EBC00080ED0A
:10270000000B15481849097800EBC10090ED000B4B
:102710008DED120B9FED120B53EC102B9DED120B58
:1027200051EC100B05F006FFCDE91401074918988C
:1027300001EBC00090ED000B8DED120B16E00000D8
:10274000A8010020000000000000000088290020EF
:1027500048000020500000208090000870000020F9
:1027600034BDC4587EDBAA40710000209DED120BE1
:1027700053EC102B9DED140B51EC100B06F038FAB6
:1027800041EC100B4F49189801EBC00080ED000B95
:102790002839189801EBC00090ED000B8DED140B5B
:1027A0002831189801EBC00090ED000B8DED120B55
:1027B0009DED140B53EC102B9DED120B51EC100BF7
:1027C00006F0EEFA41EC100B3E492831189801EB67
:1027D000C00080ED000B189801EBC00090ED000BDD
:1027E0008DED140B9DED140B02F0BAFD3548503001
:1027F000189900EBC10080ED000B32492831189880
:1028000001EBC00090ED000B8DED140B9DED140B52
:1028100002F00AFE2B497831189801EBC00080EDD8
:10282000000B1898401C80B2189018980528FFF6E5
:1028300037AF24495031052001F040FA21483038A3
:1028400080ED340B00F1A801052001F037FA1D4896
:10285000303880ED360B1C481C49097850F82100AF
:10286000139006F087FBCDE914019DED140B53EC9A
:10287000102B174890ED000B51EC100B05F05AFE91
:1028800041EC100B124880ED000B124812490978F8
:1028900050F82100139006F06DFBCDE914019DED79
:1028A000140B53EC102B0D4890ED000B51EC100B5A
:1028B00005F040FE41EC100B084880ED000B199824
:1028C0001BB000BD88290020D090000870000020B7
:1028D00048000020E0900008710000205000002017
:1028E00000B585B00121084600F0FAFF01218803F8
:1028F00001F026F88020039001208DF810008DF85B
:10290000130003208DF8110003A91B4800F0B6FD49
:1029100000201A4908601020039000208DF8100054
:1029200001208DF8130003208DF8110003A912482F
:1029300000F0A4FD0421002001F0A0F91020019076
:1029400000208DF808000C208DF8090001208DF87A
:102950000A0001A800F000FB0A208DF8000000200A
:102960008DF801008DF8020001208DF80300684603
:1029700000F00AFE05B000BD000002409C0240428B
:102980001CB50024002000900190684601F0C6F8B4
:1029900000BF12E05DF8240000F4000038B15DF8DB
:1029A0002400A0F18070064941F8240004E05DF89D
:1029B0002400034941F82400641C022CEAD31CBD06
:1029C0003800002010B51C48007800B110BD1B482D
:1029D00090ED000B53EC102B194890ED000B51ECCF
:1029E000100B05F0A7FD41EC100B164880ED000B15
:1029F0009FED150B53EC102B90ED000B51EC100BD1
:102A000006F0C0F803D2032001F0C6FA12E09FEDF1
:102A1000100B53EC102B0B4890ED000B51EC100BEE
:102A200006F0B0F803D2022001F0B6FA02E001206D
:102A300001F0B2FA00BFC9E7382A00206000002088
:102A400068000020580000200AD7A3703D0A1D40EE
:102A500008AC1C5A643BE73F00BFFEE710B50124F9
:102A6000FEF70AFE04469FED5F0B53EC102B5F4808
:102A700090ED000B51EC100B06F084F808D21020FA
:102A80005B4948832020488300205A49087049E068
:102A90009FED590B53EC102B544890ED000B51EC6B
:102AA000100B06F06FF814D29FED4E0B53EC102B69
:102AB0004E4890ED000B51EC100B05F029FF08D8A3
:102AC00010204B4948832020088301204949087081
:102AD00028E09FED4B0B53EC102B444890ED000B7E
:102AE00051EC100B06F04EF814D29FED430B53EC53
:102AF000102B3E4890ED000B51EC100B05F008FF39
:102B000008D810203A4908832020488302203949F8
:102B1000087007E01020364908832020088303202E
:102B2000344908709FED2F0B53EC102B364890ED75
:102B3000000B51EC100B06F025F808D201203349A8
:102B400048830220488300203149087048E09FED07
:102B50002A0B53EC102B2C4890ED000B51EC100B72
:102B600006F010F814D29FED1F0B53EC102B2648E3
:102B700090ED000B51EC100B05F0CAFE08D80120B7
:102B8000224948830220088301202149087027E058
:102B90009FED1B0B53EC102B1B4890ED000B51ECE1
:102BA000100B05F0EFFF13D29FED130B53EC102B1E
:102BB000154890ED000B51EC100B05F0A9FE07D85D
:102BC000012012490883022048831149087007E058
:102BD00001200E4908830220088303200C49087055
:102BE000204610BD7B14AE47E17AC43F4800002068
:102BF0000010024070000020FCA9F1D24D62903F0D
:102C00002D431CEBE2365A3F5000002000000240EA
:102C10007100002010B52DED068B82B001249FEDD0
:102C2000920B8DED000BFFF719FF0446904890F8CA
:102C30002800904901EBC00090ED001BB0EE410A66
:102C4000F0EE610A53EC102B8B4890ED001B51EC19
:102C5000110B05F099FE41EC190B9FED880B53EC1D
:102C6000102B05F091FE41EC180B9FED860B53ECF9
:102C7000102B05F089FE41EC100B844880ED000B11
:102C80009FED7E0B53EC102B90ED000B51EC100BD5
:102C900005F050FCCDE90001754840787C4A02EB14
:102CA000800090ED000A10EE101A084606F062F956
:102CB00041EC1A0B53EC1A2B764890ED000B51ECBB
:102CC000100B05F037FC41EC190B9FED6E0B53EC2C
:102CD000102B05F059FE41EC180B9FED6F0B53ECD8
:102CE000102B05F051FE41EC100B6D4880ED000BF0
:102CF000FFF768FE5E4890ED0B0A10EE101A0846CA
:102D000006F038F941EC180B9DED000B53EC102B3D
:102D100005F0FEFD08D2564890F8280060B9012160
:102D2000084604F00FFB07E0514890F828000128FE
:102D300002D1002104F006FB544890ED000B53EC47
:102D4000102B574890ED000B51EC100B05F0F2FBE7
:102D500041EC100B464880ED020B524890ED342BAD
:102D6000B0EE420AF0EE620A414890ED022BB0EE5E
:102D7000421AF0EE621A53EC102B51EC110B05F0D5
:102D800003FE41EC100B3A4880ED060B454890EDF0
:102D9000362BB0EE420AF0EE620A354890ED022B77
:102DA000B0EE421AF0EE621A53EC102B51EC110BFC
:102DB00005F0EAFD41EC100B2D4880ED080B90ED7D
:102DC000010A10EE101A084606F0D4F841EC1A0B6E
:102DD00053EC1A2B2D4890ED000B51EC100B05F025
:102DE000A9FB41EC190B9FED300B53EC102B05F0B8
:102DF000CBFD41EC180B05F0B7FA00EE100A1C48A9
:102E000080ED040A90ED010AD0ED010A20EE200ABF
:102E100010EE101A084606F0ADF841EC190B1448F4
:102E200090ED021BB0EE410AF0EE610A53EC102B5C
:102E300051EC190B05F0A8FD41EC180B9FED160B9A
:102E400053EC102B05F076FB41EC100B084880ED9D
:102E50000C0B144890ED340B054880ED0E0B20460A
:102E600002B0BDEC068B10BD0000000000000000A9
:102E7000382A002070900008480000200000000060
:102E800000004440000000000000104060000020EE
:102E9000C0900008500000200000000000408F405B
:102EA0006800002058290020000000000000594060
:102EB00070470000002421E011480068D0B10021D3
:102EC0000F48006804F020FE0446012C12D104F0E3
:102ED000EBF900200B49088005F036F901200A497A
:102EE00008709FED0A0A0A4880ED030AC8210948C4
:102EF000FDF768FB4FF4FA7004F01CF8DCE7000003
:102F0000140000200000406C1800002000000000A9
:102F10003C010020282C002010B5102000F010F8F3
:102F200028B1102000F006F801200149087010BDFA
:102F3000400000200149086070470000143C014037
:102F400001460020034A12680A400AB1012000E04D
:102F500000207047143C0140002123498279002A57
:102F60003AD00A46126803689A430B461A600A1D53
:102F7000126803689A430B1D1A60027911440A68AB
:102F800003681A430A60184A0832126803689A43B1
:102F9000154B08331A601A1D126803689A43124BC6
:102FA0000C331A604279102A0ED11A1F1268036876
:102FB0001A430D4B08331A601A1D126803681A432E
:102FC000094B0C331A600DE00749427911440A6835
:102FD00003681A430A6005E0027911440A6803682D
:102FE0009A430A6070470000003C014051B18200E2
:102FF000A2F1C042126842F001038200A2F1C04275
:10300000136009E08200A2F1C0421268034B1A402B
:103010008300A3F1C0431A6070470000FEFF0F0059
:10302000D0E901121143C268114302691143426998
:10303000114382691143C2691143026A1143426A12
:103040001143826A1143C26A1143026B1143026841
:103050009200A2F1C0421160816808290BD1016879
:103060008900A1F1C041096841F04002016889006E
:10307000A1F1C0410A60416B0968426B526841EAA4
:103080000211426B926841EA0221426B928941EA45
:103090000241426B128A41EA0251426B127D41EABF
:1030A0000261426B926911430268521C9200A2F1C4
:1030B000C0421160C16AB1F5804F1BD1816B0968B4
:1030C000826B526841EA0211826B926841EA0221E6
:1030D000826B128A41EA0251826B127D41EA0261DF
:1030E000826B9269114302689200A2F1C042C2F859
:1030F000041107E06FF0704201688900A1F1C0413E
:10310000C1F804217047000070B52DED028B054613
:10311000012615B1012D66D132E001F0B7FE70BB7A
:10312000A94890ED040A10EE101A084605F022FF97
:1031300041EC100BA548A649097800EBC10080EDD1
:10314000000BA14890ED020BA248A349097800EBBF
:10315000C10080ED000B9C4890ED060B9F489E49F6
:10316000097800EBC10080ED000B974890ED080B4B
:103170009B489949097800EBC10080ED000B33E0D2
:10318000FFF748FD70BB974890ED040A10EE101A47
:10319000084605F0EFFE41EC100B8C488C4909788D
:1031A00000EBC10080ED000B8E4890ED020B8948CA
:1031B0008949097800EBC10080ED000B894890ED4A
:1031C000060B86488449097800EBC10080ED000BAE
:1031D000844890ED080B82487F49097800EBC100D4
:1031E00080ED000B00E000BF00BF79480078401C74
:1031F0007749087078480078401C7749087074480F
:10320000007803283ADB9FED780B794880ED000BBE
:10321000002418E06D4800EBC40090ED001BB0EEF8
:10322000410AF0EE610A53EC102B714890ED001B3F
:1032300051EC110B05F0CAF841EC100B6C4880ED15
:10324000000B601CC4B2624800788442E2DB604834
:10325000007805F049FB41EC180B53EC182B64483F
:1032600090ED000B51EC100B05F064F941EC100BE4
:103270005F4880ED000B00205549087056480078E3
:1032800005287DDB9FED580B5A4880ED000B9FED24
:10329000560B594880ED000B9FED530B574880EDBE
:1032A000000B002446E04B4800EBC40090ED001BEF
:1032B000B0EE410AF0EE610A53EC102B4D4890ED50
:1032C000001B51EC110B05F081F841EC100B494843
:1032D00080ED000B414800EBC40090ED001BB0EE08
:1032E000410AF0EE610A53EC102B434890ED001BAD
:1032F00051EC110B05F06AF841EC100B3E4880EDE3
:10330000000B374800EBC40090ED001BB0EE410A03
:10331000F0EE610A53EC102B384890ED001B51EC95
:10332000110B05F053F841EC100B344880ED000B05
:10333000601CC4B2284800788442B4DB2648007878
:1033400005F0D2FA41EC180B53EC182B294890EDFC
:10335000000B51EC100B05F0EDF841EC100B25487B
:1033600080ED000B1C48007805F0BEFA41EC180B0C
:1033700053EC182B204890ED000B51EC100B00E0A3
:103380001EE005F0D7F841EC100B1B4880ED000B58
:103390001148007805F0A8FA41EC180B53EC182BF3
:1033A000164890ED000B51EC100B05F0C3F841EC02
:1033B000100B124880ED000B002007490870002612
:1033C0003046BDEC028B70BD782A0020682B0020AF
:1033D000A9000020A82A0020AA000020E82A002036
:1033E000282B0020382A00200000000000000000E8
:1033F000900000207800002080000020880000203D
:10340000C0B10421184A1183082151830421174AAD
:103410001180082111800121154A82F828101021FD
:10342000114A5183202151830121124A51830221E3
:10343000518318E004210C4A51830821518304214F
:103440000A4A921E11800821921C118001210A4A09
:1034500051701021044A5183202151830121054AD2
:103460005183022151837047001002401A08024024
:10347000382A002000000240782A0020F0B50A46D1
:1034800000210023002400BF3DE0012505FA01F3DF
:10349000156805EA03049C4234D105684F000326F1
:1034A000BE40B543056015794E00B540066835430A
:1034B00005601579012D02D01579022D16D1856888
:1034C0004F000326BE40B543856055794E00B54098
:1034D000866835438560456801268E40B543456062
:1034E000456896798E40B6B235434560C5684F0051
:1034F0000326BE40B543C560D5794E00B540C668C9
:103500003543C560491C1029BFD3F0BDF0B5002379
:1035100000244D07ED0E02FA05F3CE1000F1200550
:1035200055F826504E07F70E0F26BE40B543CF1074
:1035300000F1200646F82750CE1000F1200555F87E
:10354000265045EA0304CE1000F1200545F8264038
:10355000F0BD418370470183704700BFFEE7000064
:1035600009E005480068C0430449C1F8B0024FF4BF
:103570007A7003F0DFFCF4E7B00240420000404202
:1035800000BFFEE77047000070B5002100230F2246
:10359000C4781CB3174C246804F4E064C4F5E064F8
:1035A000C4F30721C1F10404E3B20A4144789C400A
:1035B000E1B28478144021430C07210E0E4C0578AB
:1035C0006155047804F01F050124AC4005786D11A5
:1035D000AD0005F1E025C5F8004109E0047804F0EC
:1035E0001F050124AC40054D0678761145F82640AC
:1035F00070BD00000CED00E000E400E080E100E0C0
:1036000002490143024A1160704700000000FA05B8
:103610000CED00E010B5044603F046FE3EE0254800
:103620000088A0421CDA2348008840F6FF718842D7
:1036300001D1002010BD1F480088401C1D49088092
:10364000084600881C4908801A48008840F6FF7127
:10365000884205D117480088A04201DA0320E9E733
:1036600014480088A04216DD1248008808B90120DD
:10367000E0E710480088401E0E4908800846008890
:103680000D4908800B48008828B90A480088A042E4
:1036900001DD0420CEE7012002F0D2FC05480088BD
:1036A000A042BCD104F050FD0248008802490880C5
:1036B0000220BFE7AC0000200000406CF0B52DED0B
:1036C000048B81B0B0EE408A06460D4602279FED7E
:1036D000470AF0EE408A00249FED440AB0EE409A7B
:1036E00000BF434890ED000AC8EE000AB2EE040A9B
:1036F00020EE800AB0EE409AB0EE490A00F09AF847
:103700000746002D70D15AE03A480078012808D1C8
:103710009FED360A00F08EF8062700203549087024
:1037200061E000BF3046FFF7EFFC0028FAD100BF90
:103730003046FFF7E9FC0028FAD12F48009490EDBD
:10374000000B53EC102B2DA0FCF720FE2A4890ED27
:10375000000B51EC100B04F007FE08EE900A9FEDF1
:103760002D0A28EE000AB4EEE80AF1EE10FA11D89C
:103770009FED290A28EE000AB4EEE80AF1EE10FAED
:1037800008DB002425A0FCF701FE022001B0BDECFF
:10379000048BF0BD88EE280A20EE090AB0EE409AAC
:1037A000B0EE490A00F046F80746601CC4B2092C86
:1037B00005D100241CA0FCF7E9FD0520E6E79FEDFC
:1037C000150A28EE000AB4EEE80AF1EE10FA08DC59
:1037D0009FED110A28EE000AB4EEE80AF1EE10FAA5
:1037E00001D2092C90DB00BF3846CFE70000000073
:1037F0001C00002018000020900000206266623D3E
:10380000252E346620202020636E74203D20256400
:103810000D0A000048E17A3F5C8F823FB5F7D5FB87
:10382000CDEAB3C90D0A0000B5F7D5FBB3ACCAB1F8
:103830000D0A000070B52DED0C8BB0EE408A02240D
:1038400000259FED1E0AB4EEC08AF1EE10FA03DDEA
:103850009FED1A0AB0EE408A18EE100A05F08AFBB6
:1038600041EC1D0B9FED160B53EC102B04F062FE88
:1038700041EC1C0B9FED140B53EC102B05F084F85E
:1038800041EC1B0B9FED120B53EC102B04F052FE7E
:1038900041EC1A0B9FED100B53EC102B05F074F854
:1038A00041EC190B04F0DAFFC0F30B052846FFF7D3
:1038B000B1FE04462046BDEC0C8B70BD0000F0420A
:1038C0000000000000005E40000000000000184002
:1038D000355EBA490CC21840000000000000B0403C
:1038E00029B1064A12680243044B1A6004E0034AF5
:1038F00012688243014B1A60704700003038024062
:1039000029B1064A12680243044B1A6004E0034AD4
:1039100012688243014B1A60704700003838024039
:1039200029B1064A12680243044B1A6004E0034AB4
:1039300012688243014B1A60704700004038024011
:1039400029B1064A12680243044B1A6004E0034A94
:1039500012688243014B1A607047000044380240ED
:1039600029B1064A12680243044B1A6004E0034A74
:1039700012688243014B1A607047000024380240ED
:10398000F0B5002100220024022500260223324F38
:103990003F6807F00C0121B1042905D0082937D16F
:1039A00005E02E4F076036E02D4F076033E02A4FC9
:1039B0003F1F3F68C7F38056274F3F1F3F6807F000
:1039C0003F036EB1264FB7FBF3F7DFF88CC0ACF1C5
:1039D000040CDCF800C0CCF3881C07FB0CF40CE0F2
:1039E0001E4FB7FBF3F7DFF870C0ACF1040CDCF846
:1039F00000C0CCF3881C07FB0CF4174F3F1F3F6837
:103A0000C7F301477F1C7D00B4FBF5F7076002E0B8
:103A1000124F076000BF00BF0F4F3F6807F0F00173
:103A20000909104F7A5C0768D74047600A4F3F6822
:103A300007F4E051890A0B4F7A5C4768D7408760EA
:103A4000054F3F6807F46041490B064F7A5C4768B1
:103A5000D740C760F0BD0000083802400024F400E1
:103A600000127A00B800002000B587B00121084696
:103A7000FFF736FF01210803FFF762FF6020059082
:103A800002208DF8180000208DF81A0003208DF810
:103A9000190001208DF81B0005A91E48FFF7EEFC58
:103AA000052211461B48FFF731FD05220621194862
:103AB000FFF72CFD01210803FFF752FF00214FF40F
:103AC0008050FFF74DFF4FF48060ADF800004FF4D9
:103AD0008270ADF802000020ADF80400ADF80600D9
:103AE0000120ADF808004002ADF80A002820ADF82A
:103AF0000C000020ADF80E000720ADF8100069465C
:103B0000054800F09DF80021034800F081F807B057
:103B100000BD000000000240003001407CB50546B9
:103B200000240020009001900121384800F070F836
:103B300000BF0121354800F077F80028F9D033485C
:103B400000F07BF8C0B28DF8000000BF01212F48C3
:103B500000F06AF80028F9D02C4800F06EF8C0B2E6
:103B60008DF8010000BF0121284800F05DF8002811
:103B7000F9D0264800F061F8C0B28DF8020000BF0D
:103B80000121224800F050F80028F9D01F4800F029
:103B900054F8C0B28DF8030000BF01211B4800F0AB
:103BA00043F80028F9D0194800F047F8C0B28DF862
:103BB000040000BF0121154800F036F80028F9D0B4
:103BC000124800F03AF8C0B28DF8050000210F4805
:103BD00000F01EF8002415E004EB44001DF800007E
:103BE000010404EB4400401C1DF8000041EA0020E1
:103BF00004EB4401891C1DF80110084345F824001A
:103C0000601CC4B2022CE7DB7CBD00000030014028
:103C100021B1028842F04002028004E002884FF69F
:103C2000BF731A40028070470246002013890B4080
:103C30000BB1012000E000207047014688897047E1
:103C400010B50022028802F441520B884C882343AD
:103C50008C882343CC8823430C8923434C892343FA
:103C60008C892343CC8923431A430280838B4FF2F0
:103C7000FF74234083830B8A038210BD30B500227A
:103C80008B071C0F0F2303FA04F20B4B8C1053F815
:103C900024309343084C8D1044F8253023468C1073
:103CA00053F824308C07240F00FA04F42343024C09
:103CB0008D1044F8253030BD0838014070B52DED29
:103CC000068B86B006460C4694ED000B8DED000B7E
:103CD0008DED020B8DED040B012541E004EBC500D9
:103CE00090ED001BB0EE410AF0EE610A53EC102B90
:103CF0009DED001B51EC110B04F068FBCDE90001B8
:103D000004EBC50090ED001BB0EE410AF0EE610A35
:103D10009DED021B53EC112B51EC100B04F0F8FD40
:103D200005D204EBC50090ED000B8DED020B04EB0A
:103D3000C50090ED001BB0EE410AF0EE610A9DED6A
:103D4000041B53EC112B51EC100B04F01BFF05D29C
:103D500004EBC50090ED000B8DED040B681C85B2E3
:103D6000B542BBDB032E0FDC304604F0BDFD41EC59
:103D7000180B53EC182B9DED000B51EC100B04F0BD
:103D8000D9FBCDE900011EE0B01E04F096FD41EC28
:103D9000180B9DED040B53EC102B9DED000B51EC1B
:103DA000100B04F0FDFF41EC1A0B9DED020B53ECE0
:103DB000102B04F0F5FF41EC190B53EC182B04F019
:103DC000B9FBCDE900019DED000B06B0BDEC068B03
:103DD00070BD00000CB500200190009034480068D0
:103DE00040F480303249086000BF3148006800F478
:103DF000003000900198401C0190009818B901987B
:103E0000B0F5A04FF1D12A48006800F4003010B19D
:103E10000120009001E0002000900098012846D188
:103E200023484030006840F080502149403108600C
:103E30002048006840F440401E4908601C48083093
:103E400000681B49083108600846006840F40040DB
:103E500008600846006840F4A05008601648091F32
:103E60000860081F006840F08070091F086000BFEC
:103E70000F48006800F000700028F9D040F205708B
:103E80000E4908600A480830006820F0030008491D
:103E9000083108600846006840F00200086000BF72
:103EA00003480830006800F00C000828F8D10CBD69
:103EB000003802400070004008544007003C0240B7
:103EC0001CB5044602F018FF03220021012003F074
:103ED0002FFB194908601948072100238022CDE9EA
:103EE000001017A1194803F031FF194805210023DC
:103EF0004FF48072CDE9001016A1194803F026FF97
:103F00001848042100238022CDE9001016A11A4888
:103F100003F01CFF1948062100238022CDE9001080
:103F200017A11B4803F012FF1A48006803F042F97A
:103F300002F00CFF1CBD0000140000200400002053
:103F40007561727431207461736B0000DD4C000880
:103F50000800002074657374207461736B000000A6
:103F6000B14300080C0000206C6564666C617368E6
:103F70002074657374000000613500081000002093
:103F8000646F7265736574207461736B0000000068
:103F9000B52E00080000002010B504462848047023
:103FA0002848407826490978884200D110BD244825
:103FB0000078032802DD032021490870204800789A
:103FC000012811D18020204908804FF4FA7002F0B6
:103FD000B1FF4FF480701C49891C088040000880A4
:103FE00001201849487025E015480078022810D1B2
:103FF000C001154908804FF4FA7002F09BFF802041
:104000001149891C08808000088002200D494870F1
:1040100010E04FF400700C4908804FF4FA7002F081
:1040200089FF80200849891C0880400008800320FF
:10403000044948704FF4FA7002F07CFF00BFB5E706
:10404000A8000020382A00201808024010B500BF40
:10405000502080F31188BFF34F8FBFF36F8F00BFE5
:1040600003F0BAFE18B14FF080500449086000BF59
:10407000002080F3118800BF10BD000004ED00E0B7
:1040800010B51548006840F47000134908601348E3
:10409000006840F001001149086000200F49083114
:1040A00008600E4800680E4908400C4908600D4839
:1040B000091D0860081F006820F48020091F08609F
:1040C000002006490C310860FFF784FE4FF00060C5
:1040D00001498039086010BD88ED00E000380240D9
:1040E000FFFFF6FE103000241CB501210846FFF743
:1040F000F7FB01210420FFF7F3FB01211020FFF75C
:10410000EFFB01212020FFF7EBFB01214020FFF70F
:10411000E7FB41F60300009001208DF80400002029
:104120008DF8060001208DF8070003208DF80500AA
:1041300069463348FFF7A2F903213148FFF709FA2E
:104140004FF47370009001208DF8040000208DF86A
:10415000060001208DF8070003208DF80500694650
:104160002848FFF78BF94FF443712648FFF7F1F920
:10417000C0212448FFF7EFF93C20009001208DF882
:10418000040000208DF8060001208DF807000320B0
:104190008DF8050069461C48FFF770F90C211A4894
:1041A000FFF7D7F930211848FFF7D3F9FF20009027
:1041B00001208DF8040000208DF8060001208DF804
:1041C000070003208DF8050069461048FFF756F9EF
:1041D000FF210E48FFF7BDF97C20009001208DF8EB
:1041E000040000208DF8060001208DF80700032050
:1041F0008DF8050069460648FFF740F91CBD000030
:10420000000002400008024000100240001402407A
:1042100000180240002056E09FED5B0B5C4901EB6B
:10422000C00181ED000B9FED580B5949503101EB56
:10423000C00181ED000B9FED540B5549283101EB76
:10424000C00181ED000B9FED500B5149783101EB1E
:10425000C00181ED000B9FED4C0B4E4901EBC001FD
:1042600081ED000B9FED480B4A49283101EBC0015D
:1042700081ED000B9FED440B4649503101EBC0012D
:1042800081ED000B9FED400B4249783101EBC001FD
:1042900081ED000B9FED3C0B3E49A03101EBC001CD
:1042A00081ED000B9FED380B3A49C83101EBC0019D
:1042B00081ED000B9FED340B3649F03101EBC0016D
:1042C00081ED000B401C0528A6D3002009E0002248
:1042D0002F49A03141F8202000212F4A42F8201018
:1042E000401C40F2E3418842F1D39FED270B29495E
:1042F000483181ED340B9FED240B81ED360B03210A
:10430000264A117051709FED260A114681ED010A6F
:104310009FED1D0B81ED020B9FED220A81ED040A3A
:104320009FED190B81ED060B9FED170B81ED080B2F
:10433000012182F828109FED1C0A114681ED0B0A1D
:104340009FED110B81ED0C0B9FED0F0B81ED0E0B13
:104350000521164A1170012151709FED0B0B11467A
:1043600081ED020B9FED0F0A81ED040A9FED060B14
:1043700081ED060B9FED040B81ED080B9FED0A0A02
:1043800081ED0A0A704700000000000000000000F4
:10439000580100201029002084150020382A002010
:1043A0000000C842000000009A997940782A002055
:1043B0002DED028B84B0022600274FF00008002567
:1043C0009FEDFE0AB0EE408AA9460024F9E2FC48BF
:1043D000007C00287ED0FA48407800287AD1F8483E
:1043E0000078002877D0F7480078F549097A8842A4
:1043F0004DD0F348007A30B1012808D002281BD0F4
:10440000032842D12CE00020EE4908703EE0012054
:10441000EC4908708020EC4908804FF4FA7002F0F3
:1044200089FD4FF48070E849891C088040000880AD
:104430000120E449487029E00220E2490870C001E7
:10444000E14908804FF4FA7002F074FD8020DE49E3
:10445000891C0880800008800220DA49487015E035
:104460000320D84908704FF40070D74908804FF4F2
:10447000FA7002F05FFD8020D349891C088040005B
:1044800008800320CF49487000E000BF00BFCC483F
:10449000407CA84267D002F02FFC9FEDC80AFFF7CE
:1044A000C9F902F053FC00BFC5490878FEF72CFE9D
:1044B0000028F9D19FEDC50B53EC102BC54890EDAA
:1044C000000B51EC100B04F023FA4CD2BC48407C9A
:1044D000082801E072E247E044D2DFE800F043043C
:1044E0000D161F28313A8020BB4908604FF47A70BE
:1044F00002F020FD012536E04020B74908604FF466
:104500007A7002F017FD02252DE02020B2490860E4
:104510004FF47A7002F00EFD032524E01020AE491E
:1045200008604FF47A7002F005FD04251BE00820B6
:10453000A94908604FF47A7002F0FCFC052512E0EE
:104540000420A54908604FF47A7002F0F3FC0625B8
:1045500009E00220A04908604FF47A7002F0EAFCFA
:10456000072500E000BFC4E19548D0ED050A90EDB5
:10457000011A80EE810AD0ED030A20EE200ADFED59
:10458000970A80EE201A80ED061A90ED060ADFEDFC
:10459000940AB4EEE00AF1EE10FA30D80720884908
:1045A00048740846407CA842DDD002F0A5FB9FED90
:1045B000830AFFF73FF902F0C9FB0FE08049087852
:1045C000FEF7A2FD874890ED040ADFED870AB4EEFE
:1045D000E00AF1EE10FA01D2601CC4B2032CEDDB4C
:1045E000002402207C4908604FF47A7002F0A2FC9B
:1045F000072500207D4908704FF0010979E17048D6
:1046000090ED060ADFED7A0AB4EEE00AF1EE10FA58
:1046100030D806206A4948740846407CA842A2D097
:1046200002F06AFB9FED650AFFF704F902F08EFBCA
:104630000FE063490878FEF767FD6A4890ED040AC9
:10464000DFED690AB4EEE00AF1EE10FA01D2601C67
:10465000C4B2032CEDDB002404205F4908604FF452
:104660007A7002F067FC06250020604908704FF060
:1046700001093EE1524890ED060ADFED5E0AB4EE14
:10468000E00AF1EE10FA30D805204D49487408468A
:10469000407CA842B2D002F02FFB9FED480AFFF702
:1046A000C9F802F053FB0FE045490878FEF72CFDEE
:1046B0004C4890ED040ADFED4C0AB4EEE00AF1EE4E
:1046C00010FA01D2601CC4B2032CEDDB00240820D8
:1046D000414908604FF47A7002F02CFC0525002057
:1046E000424908704FF0010903E1354890ED060A90
:1046F000DFED410AB4EEE00AF1EE10FA30D8042002
:104700002F4948740846407CA842B2D002F0F4FA1F
:104710009FED2A0AFFF78EF802F018FB0FE02849F8
:104720000878FEF7F1FC2F4890ED040ADFED2E0A21
:10473000B4EEE00AF1EE10FA01D2601CC4B2032C10
:10474000EDDB00241020244908604FF47A7002F059
:10475000F1FB04250020254908704FF00109C8E04D
:10476000174890ED060ADFED250AB4EEE00AF1EEF7
:1047700010FA53D80320124948740846407CA842D6
:104780004BD002F0B9FA9FED0D0AFFF753F802F093
:10479000DDFA0FE00A490878FEF7B6FC114890ED03
:1047A000040ADFED110AB4EEE00AF1EE10FA01D2CC
:1047B000601CC4B2032CEDDB002421E000000000EB
:1047C0003C010020382A00201808024033333333DC
:1047D0003333D33F90000020141402400000C8423D
:1047E0003D0AD73E782A00209A99993E2000002061
:1047F000CDCC0C406666A640333323419A99F141F3
:104800002020704908604FF47A7002F093FB032572
:1048100000206D4908704FF001096AE06B4890ED87
:10482000060ADFED6B0AB4EEE00AF1EE10FA30D8BA
:104830000220664948740846407CA84259D002F0DC
:104840005BFA1FED220AFEF7F5FF02F07FFA0FE098
:104850005E490878FEF758FC5E4890ED040A5FED6B
:104860001E0AB4EEE00AF1EE10FA01D2601CC4B2E6
:10487000032CEDDB00244020524908604FF47A708D
:1048800002F058FB022500204F4908704FF0010943
:104890002FE001204D4948740846407CA84228D0AA
:1048A00002F02AFA1FED3B0AFEF7C4FF02F04EFAAF
:1048B0000FE046490878FEF727FC464890ED040AC9
:1048C0005FED370AB4EEE00AF1EE10FA01D2601C97
:1048D000C4B2032CEDDB002480203A4908604FF479
:1048E0007A7002F027FB01250020374908704FF04D
:1048F000010936480078404506D0344890F80080D9
:1049000001460878FEF77CFD3FB1304890ED030A80
:10491000B4EE480AF1EE10FA39D0B9F1010F02D025
:1049200029480078F8B9B2EE040AFEF783FF00BF09
:1049300026490878FEF7E8FB0028F9D100BF234993
:104940000878FEF7E1FB0028F9D1234890ED000B31
:1049500051EC100B03F008FD2049086001201A49B2
:1049600008704FF0000919490878D1ED030AB0EE3C
:10497000600A0021FEF7A2FE0646022E01D10127A1
:1049800000E00027114890ED030AB0EE408A0F497D
:104990000878FEF7B9FB88B9114890ED000B8DED52
:1049A000020B104890ED000B8DED000B0A4890EDC6
:1049B000000B53EC102B0CA0FBF7E8FC642002F07A
:1049C000B9FA04E514140240200000203C01002044
:1049D0006666A042782A0020900000201C0000207B
:1049E00088000020800000206266623D252E34662B
:1049F0002020202062633D252E34662020202020A8
:104A00006A633D252E34660D0A00000038B540F279
:104A10002551254800F0A2F8002844D0224800F093
:104A200057F9C4B2212C0DD169462048006802F024
:104A300047FF009830B120071D490860BFF34F8F32
:104A4000BFF36F8F1B48008800F4004058BB194823
:104A5000008800F4804060B10A2C03D00020154982
:104A6000088020E01348008840F400401149088085
:104A700019E00D2C06D10F48008840F480400D4904
:104A8000088010E00B480088C0F30D000A490C5460
:104A900008480088401C0749088008460088C72845
:104AA00001DD0020088038BD001001401400002006
:104AB00004ED00E0B4000020282C002010B540F2E6
:104AC00025511D4800F04AF810B31B4800F000F9CA
:104AD000C4B21A48008800F40040C8B917480088DA
:104AE00000F4804060B10A2C03D0002013490880F4
:104AF00020E01248008840F400401049088019E086
:104B00000D2C06D10D48008840F480400B490880E8
:104B100010E00A480088C0F30D0009490C5407480A
:104B20000088401C0549088008460088C72801DD28
:104B30000020088010BD000000440040B6000020A6
:104B4000F02C002021B1828942F40052828104E0DD
:104B500082894DF6FF731A408281704770B5024614
:104B6000002400230025002040F66A16B14200D13F
:104B700000BFC1F3421501F01F03012606FA03F33B
:104B8000012D02D19689334006E0022D02D1168A0A
:104B9000334001E0968A33400C12012606FA04F4F1
:104BA0001688344013B10CB1012000E0002070BD24
:104BB000F0B50346002400260025002040F66A17C1
:104BC000B94200D100BF1846C1F3421401F01F06DC
:104BD000012707FA06F5012C01D10C3004E0022C64
:104BE00001D1103000E014301AB107682F4307607C
:104BF00002E00768AF430760F0BD00002DE9FF4702
:104C000005460E460024A14600BFA046B08900B16B
:104C100000BF2C8A24F44054F08804432C82AC89D1
:104C200041F20C608443B08831890843718908439C
:104C30000443AC81AC8A24F44074B0890443AC8250
:104C40006846FEF79DFE2048854202D01F488542F7
:104C500002D1DDF80C9001E0DDF80890A88900F49D
:104C6000004040B109EBC90000EB09103168490070
:104C7000B0FBF1F707E009EBC90000EB0910316860
:104C80008900B0FBF1F76420B7FBF0F004012009C4
:104C9000642101FB1078A88900F4004040B1322063
:104CA00000EBC800B0FBF1F000F00700044308E09F
:104CB000322000EB08106421B0FBF1F000F00F008F
:104CC00004432C81BDE8FF8700100140001401401F
:104CD00001468888C0F30800704700001CB5002416
:104CE00000255DA0006801905BA000680090B1E025
:104CF0005A48008800F4004000286FD058480078D7
:104D000023286CD156484078C00956490870544849
:104D10004078C0F3801048705148407800F001009E
:104D200008744F484078C0F3C2050846007830BB8D
:104D300040204D49088025B1012D08D0022D12D107
:104D40000BE0B1EE040A474880ED010A0CE0B0EE3A
:104D5000000A444880ED010A06E0B7EE000A414827
:104D600080ED010A00E000BF00BF3E4890ED010A5F
:104D7000BCEEC00A10EE100A3C49087041E0402029
:104D80003949891C0880052D33D2DFE805F0030C72
:104D9000151E29009FED360A324880ED010A0120D8
:104DA0003049487426E09FED330A2E4880ED010A11
:104DB00001202C4948741DE09FED2F0A294880ED01
:104DC000010A01202749487414E09FED2C0A254868
:104DD00080ED010A0220234948740BE036E032E0FE
:104DE0009FED270A1F4880ED010A03201D494874E2
:104DF00000E000BF00BF1B4890ED010A214880ED94
:104E0000010A17484078C0F341001649087200248F
:104E10000BE0A01C1249085C01A90855A01D10490F
:104E2000085C0DF80400601CC4B2032CF1DD01A87D
:104E300001F098F80B4880ED030A684601F092F8FB
:104E4000084880ED050A0020044908804FF4FA70F4
:104E500002F070F84CE7000030303030B400002031
:104E6000282C00203C01002018080240782A00204D
:104E700000005C43000016430000C842A4F06642F4
:104E80004D550542382A002000BFFEE710B52DED34
:104E9000068B0124FDF7E2FD04469FED620B53EC07
:104EA000102B624890ED000B51EC100B03F042FB0D
:104EB00041EC180B9FED5E0B53EC102B03F064FDDF
:104EC00041EC100B5C4880ED000B5C4840785C497D
:104ED00001EBC00090ED001BB0EE410AF0EE610A5C
:104EE00053EC102B574890ED001B51EC110B03F0C5
:104EF0004BFD41EC180B9FED4E0B53EC102B03F0C8
:104F000043FD41EC100B504880ED000B4B4890EDF9
:104F10000A0A10EE101A084604F02CF841EC180B9F
:104F2000494890ED000B53EC102B51EC180B03F09B
:104F3000EFFC07D24148407860B90121002002F01F
:104F400001FA07E03D484078012803D100210846D6
:104F500002F0F8F9384890ED000B53EC102B3A486A
:104F600090ED000B51EC100B03F0E4FA41EC100B48
:104F7000324880ED020B354890ED342BB0EE420AFA
:104F8000F0EE620A2D4890ED022BB0EE421AF0EEE0
:104F9000621A53EC102B51EC110B03F0F5FC41ECB1
:104FA000100B264880ED060B284890ED362BB0EE0E
:104FB000420AF0EE620A214890ED022BB0EE421A4E
:104FC000F0EE621A53EC102B51EC110B03F0DCFCE9
:104FD00041EC100B194880ED080B0146087803F0EE
:104FE00083FC41EC1A0B53EC1A2B134890ED000B89
:104FF00051EC100B03F09EFA41EC190B9FED140BD2
:1050000053EC102B03F0C0FC41EC180B03F0ACF98F
:1050100000EE100A094880ED040A2046BDEC068B1C
:1050200010BD0000000000000000F03F480000201C
:10503000000000000000104060000020782A0020DE
:1050400070900008500000206800002058290020BF
:10505000000000000000594003B40198410000988E
:1050600050EAC12018BF04204A0D18BF40F00100CB
:1050700040F2FF72B2EB515F08BF40F0020001281E
:1050800008BF052002B0704770B59B482DED020B9C
:105090002DED068B079D25F00044A04218DC9748B3
:1050A000844202DC0AD1069840B19DED060BBDECAE
:1050B000068B02B0BDE8704000F042BE002DCCBFB0
:1050C0009FED8F0B9FED900BBDEC068B02B070BD7A
:1050D0008F48A04215DD8F48A042D8BF4FF0FF3463
:1050E00058DD9DED060B51EC100BFFF7B5FF0428C2
:1050F00008BF00F041FE9DED060BBDEC068B02B033
:1051000070BD9DED060B51EC100B00F049FFCDE991
:10511000060181489FED828BA0423CDD8248A0427F
:105120001FDD00249FED82AB9DED060B53EC1A2B87
:1051300051EC100B03F04AF99DED060B41EC190BF5
:1051400053EC1A2B51EC100B03F01EFC53EC182BF4
:1051500003F026FE53EC192B03F0ECF9CDE9060120
:1051600049E09DED060B012453EC182B51EC100B7C
:1051700003F02CF99DED060B41EC190B53EC182BA9
:1051800051EC100B03F00CFE53EC192B03F0D2F989
:10519000CDE906012FE06848A0421FDD02249FED03
:1051A000689B9DED060B53EC192B51EC100B03F093
:1051B000EBFB53EC182B03F009F99DED060B41ECCA
:1051C000180B53EC192B51EC100B03F0E9FD53ECC9
:1051D000182B03F0AFF9CDE906010CE09DED060BAD
:1051E000032453EC102B9FED580B51EC100B03F0E4
:1051F000A1F9CDE906019DED060B53EC102B51EC06
:10520000100B03F0C1FB41EC180B53EC182B03F00F
:10521000BBFB41EC190B4E480621B0EE490AF0EEFB
:10522000690A784400F078FC53EC182B51EC100B11
:1052300003F0AAFB41EC180B4648B0EE490AF0EE29
:10524000690A0521784400F067FC53EC192B51ECF6
:10525000100B03F099FB41EC100B51EC180B53ECC5
:10526000102B002C0EDA03F0B1F89DED061B53EC69
:10527000112B03F089FB9DED061B53EC112B03F062
:10528000B7FC35E003F0A2F89DED061B53EC112BA3
:1052900003F07AFB41EC100B2F48784400EBC4007C
:1052A00090ED001B51EC100B53EC112B03F078FD2B
:1052B0009DED061B53EC112B03F072FD41EC100B1E
:1052C0002648784400EBC40090ED001B51EC100B15
:1052D00053EC112B03F08CFC41EC100B002DA2BF02
:1052E000BDEC068B02B070BD51EC100B03F030F832
:1052F00041EC100B01E70000000010440000F07FBB
:10530000182D4454FB21F93F182D4454FB21F9BFBB
:105310000000DC3F0000203E0000F33F00000000E2
:10532000000000000000F03F0000E63F0000000029
:10533000000000000000004000800340000000006A
:10534000000000000000F83F000000000000F0BF77
:10535000323F0000E83E0000723E00002A3E00009E
:1053600010B52F499FED2C1B2DED020B84B0059835
:1053700020F000408842D8BF9DED040B2DDD294967
:10538000884209D1049840B94FF00100FBF76CF94D
:1053900000F0E2FC06B010BD05DB9DED040B00F053
:1053A000CFFC06B010BD68469DED040B00F0E0F8A0
:1053B00010F0030004BF9DED021B9DED000B0CD00F
:1053C00001280ED09DED021B9DED000B022817D089
:1053D000012000F01DFC06B010BD00F0E5FA06B09B
:1053E00010BD9DED021B9DED000B012000F010FC97
:1053F00051EC100B02F0ACFF06B041EC100B10BDED
:1054000000F0D2FA51EC100B02F0A2FF06B041EC12
:10541000100B10BD000000000000000000000000A4
:10542000FB21E93F0000F07F10B52F499FED2C1BB9
:105430002DED020B84B0059820F000408842DCBFBF
:1054400000209DED040B32DD2849884209D10498E3
:1054500040B94FF00100FBF707F900F07DFC06B002
:1054600010BD05DB9DED040B00F06AFC06B010BD1D
:1054700068469DED040B00F07BF810F0030011D09E
:10548000012818D09DED021B9DED000B02281AD0BB
:1054900000F08AFA51EC100B02F05AFF06B041EC12
:1054A000100B10BD9DED021B9DED000B012000F0C7
:1054B000AFFB06B010BD9DED021B9DED000B00F093
:1054C00073FA06B010BD012000F0A2FB51EC100BE6
:1054D00002F03EFF06B041EC100B10BD00000000D2
:1054E0000000000000000000FB21E93F0000F07F09
:1054F00000B52DED048BB0EE409AF0EE609A83B0CB
:1055000051EC190B03F080FB41EC180B18EE100A5C
:1055100018EE901A8DED008B002818BF012008436B
:1055200020F00040C0F17F6000F1E040C00F14D0D7
:1055300019EE101A19EE900A8DED009B002918BF84
:105540000121084320F00040C0F17F6000F1E040FD
:10555000C00F04BF0120FBF787F8B0EE480A03B084
:10556000F0EE680ABDEC048B00BD000000000000F6
:105570002DE9F14F04462DED020B2DED088B8AB07D
:105580009FEDE70B80ED020B139EE74826F00045E8
:1055900085420ADC9DED120B002084ED000B0AB061
:1055A000BDEC088B03B0BDE8F08FE0489FEDE0ABA9
:1055B0009FEDE1BBA84247DDE14F9FEDE39B9FEDEF
:1055C000E48B9DED120B53EC1A2B51EC100B002EBB
:1055D0001CDD03F0E5FB41EC100BBD4208D053ECA1
:1055E0001B2B51EC100B03F0DBFBC4E900010BE0BB
:1055F00053EC192B51EC100B03F0D2FB53EC182B8E
:1056000003F0CEFBC4E900010120C8E702F0DEFE92
:1056100041EC100BBD4208D053EC1B2B51EC100B8E
:1056200002F0D4FEC4E900010BE053EC192B51EC5D
:10563000100B02F0CBFE53EC182B02F0C7FEC4E9AE
:1056400000014FF0FF30AAE7C348A84279DB9DED87
:10565000120B51EC100B00F0A3FC41EC180B9FED6A
:10566000C00B53EC102B03F08FF99FEDBF1B53ECD5
:10567000112B02F0ABFE03F0F1F8074603F01DF921
:1056800041EC190B53EC1A2B03F07EF953EC182B59
:1056900003F0AEFA41EC180B53EC1B2B51EC190B39
:1056A00003F072F9DFF8C8A241EC100B4FEA15586D
:1056B0000125FA4453EC102B51EC180B03F070FB4E
:1056C000032DC4E900013DD0C1F30A5005EB45119B
:1056D000A8EB00001139814234DA0AEB051BB0EE69
:1056E00048AA9BED000BF0EE68AA53EC102B51EC8E
:1056F000190B03F049F941EC1B0B51EC1A0B53EC5D
:105700001B2B03F04DFB41EC180B51EC1A0B53EC27
:10571000182B03F045FB53EC1B2B03F041FB9BEDD7
:10572000020B41EC1A0B53EC102B51EC190B03F04C
:105730002BF953EC1A2B03F033FB41EC100B6D1CCF
:10574000B8E70EE0002EA8BF3846BFF628AF94EDAC
:10575000000B51EC100B02F0FBFDC4E90001784294
:105760001DE7C6F3130040F4801EC6F30A50A0F2F2
:10577000F530471100F01F05C5F12000DDF848B0F5
:1057800008900020069007900520EC467949002DEE
:1057900007EB0002794408BF51F8221009D051F8F4
:1057A000223001EB8201AB404A68089922FA01F1EC
:1057B0001943A1FB0E26A1FB0B131A449A4234BFD6
:1057C0000123002303EB06080CEB8003D3E901A6B9
:1057D0000E448E4234BF0121002192448A4411B10B
:1057E000924502D903E0924501D2012100E0002157
:1057F000C3E901A641444CF82010011EA0F10100AC
:10580000C4DC029800F10050850F0298DDE90367BF
:105810008000DDF8148003F050F841EC1A0B30469C
:1058200003F062F89FED541B53EC112B03F0ACF81E
:1058300041EC1B0B384603F057F89FED511B53EC1E
:10584000112B03F0A1F841EC180B404603F04CF883
:105850009FED4D1B53EC112B03F096F841EC190B07
:1058600051EC180B53EC192B02F0B0FD53EC1B2B31
:1058700002F0ACFD53EC1A2B02F0A8FDCDE90801B3
:10588000002008909DED080B53EC1A2B51EC100BE7
:1058900003F086FA53EC1B2B03F082FA53EC182B1F
:1058A00003F07EFA53EC192B03F0A2F99FED381B9D
:1058B00053EC112B03F068F89FED370B41EC180BFC
:1058C00053EC102B9DED080B51EC100B03F05CF822
:1058D00053EC182B02F07AFD9FED310B41EC180BC5
:1058E00053EC102B9DED080B51EC100B03F04CF812
:1058F00053EC182B02F06AFD41EC100B139810F0DA
:10590000004F06D06D4251EC100B02F021FD41EC2E
:10591000100B284684ED000B41E60000000000005B
:105920000000000000000000FB21E93F7CD902409C
:1059300000004054FB21F93F3163621A61B4D03D4D
:10594000FB21F93F000000000000601A61B4D03D67
:105950007370032E8A19A33BFB213941000000001C
:1059600083C8C96D305FE43F000000000000E03FE5
:10597000023B0000503A0000000000000000103E12
:10598000000000000000103C000000000000103A81
:10599000182D4454FB21F93D3326A611460B113C2A
:1059A00000000054FB21F93D10B52DED040B2DED49
:1059B000088B82B0B0EE419AF0EE619A0B9820F01D
:1059C00000449FED4BABB4F1795F11DA9DED0A0B0A
:1059D00051EC100B02F042FF002801BFB0EE4A0A62
:1059E000F0EE6A0A02B0BDEC088B04BF04B010BD33
:1059F0009DED0A0B53EC102B51EC100B02F0C4FF81
:105A000041EC180B3C480621B0EE480AF0EE680A5B
:105A1000784400F081F853EC182B51EC100B02F095
:105A2000B3FF9DED0A0B41EC1B0B53EC192B51EC12
:105A3000100B02F0A9FF41EC190B53EC1B2B51EC9E
:105A4000180B02F0A1FF53EC192B03F0A9F99FEDFD
:105A50002C0B41EC190B53EC102B51EC180B02F0F2
:105A600093FF41EC100B2848844210DA53EC192BB9
:105A700051EC100B03F094F953EC1A2B03F0B8F827
:105A800041EC100B02B0BDEC088B04B010BD1F48F8
:105A9000A042BCBF9FED1E1B8DED001B06DBA4F5D5
:105AA00000100190002000909DED001B51EC100BA8
:105AB00053EC112B03F074F99DED000B41EC180B26
:105AC00053EC102B51EC1A0B03F06AF941EC1A0B52
:105AD00053EC192B51EC180B03F062F953EC1A2B11
